{
  "contractName": "Twitter",
  "abi": [
    {
      "inputs": [
        {
          "internalType": "address",
          "name": "",
          "type": "address"
        },
        {
          "internalType": "uint256",
          "name": "",
          "type": "uint256"
        }
      ],
      "name": "conversations",
      "outputs": [
        {
          "internalType": "uint256",
          "name": "id",
          "type": "uint256"
        },
        {
          "internalType": "string",
          "name": "content",
          "type": "string"
        },
        {
          "internalType": "address",
          "name": "from",
          "type": "address"
        },
        {
          "internalType": "address",
          "name": "to",
          "type": "address"
        },
        {
          "internalType": "uint256",
          "name": "createdAt",
          "type": "uint256"
        }
      ],
      "stateMutability": "view",
      "type": "function",
      "constant": true
    },
    {
      "inputs": [
        {
          "internalType": "address",
          "name": "",
          "type": "address"
        },
        {
          "internalType": "uint256",
          "name": "",
          "type": "uint256"
        }
      ],
      "name": "following",
      "outputs": [
        {
          "internalType": "address",
          "name": "",
          "type": "address"
        }
      ],
      "stateMutability": "view",
      "type": "function",
      "constant": true
    },
    {
      "inputs": [
        {
          "internalType": "address",
          "name": "",
          "type": "address"
        },
        {
          "internalType": "address",
          "name": "",
          "type": "address"
        }
      ],
      "name": "operators",
      "outputs": [
        {
          "internalType": "bool",
          "name": "",
          "type": "bool"
        }
      ],
      "stateMutability": "view",
      "type": "function",
      "constant": true
    },
    {
      "inputs": [
        {
          "internalType": "uint256",
          "name": "",
          "type": "uint256"
        }
      ],
      "name": "tweets",
      "outputs": [
        {
          "internalType": "uint256",
          "name": "id",
          "type": "uint256"
        },
        {
          "internalType": "address",
          "name": "author",
          "type": "address"
        },
        {
          "internalType": "string",
          "name": "content",
          "type": "string"
        },
        {
          "internalType": "uint256",
          "name": "createdAt",
          "type": "uint256"
        }
      ],
      "stateMutability": "view",
      "type": "function",
      "constant": true
    },
    {
      "inputs": [
        {
          "internalType": "address",
          "name": "",
          "type": "address"
        },
        {
          "internalType": "uint256",
          "name": "",
          "type": "uint256"
        }
      ],
      "name": "tweetsOf",
      "outputs": [
        {
          "internalType": "uint256",
          "name": "",
          "type": "uint256"
        }
      ],
      "stateMutability": "view",
      "type": "function",
      "constant": true
    },
    {
      "inputs": [
        {
          "internalType": "address",
          "name": "_from",
          "type": "address"
        },
        {
          "internalType": "string",
          "name": "_content",
          "type": "string"
        }
      ],
      "name": "tweet",
      "outputs": [],
      "stateMutability": "nonpayable",
      "type": "function"
    },
    {
      "inputs": [
        {
          "internalType": "string",
          "name": "_content",
          "type": "string"
        }
      ],
      "name": "tweet",
      "outputs": [],
      "stateMutability": "nonpayable",
      "type": "function"
    },
    {
      "inputs": [
        {
          "internalType": "address",
          "name": "_from",
          "type": "address"
        },
        {
          "internalType": "address",
          "name": "_to",
          "type": "address"
        },
        {
          "internalType": "string",
          "name": "_content",
          "type": "string"
        }
      ],
      "name": "sendMessage",
      "outputs": [],
      "stateMutability": "nonpayable",
      "type": "function"
    },
    {
      "inputs": [
        {
          "internalType": "string",
          "name": "_content",
          "type": "string"
        },
        {
          "internalType": "address",
          "name": "_to",
          "type": "address"
        }
      ],
      "name": "sendMessage",
      "outputs": [],
      "stateMutability": "nonpayable",
      "type": "function"
    },
    {
      "inputs": [
        {
          "internalType": "address",
          "name": "_followed",
          "type": "address"
        }
      ],
      "name": "follow",
      "outputs": [],
      "stateMutability": "nonpayable",
      "type": "function"
    },
    {
      "inputs": [
        {
          "internalType": "address",
          "name": "_operator",
          "type": "address"
        }
      ],
      "name": "allow",
      "outputs": [],
      "stateMutability": "nonpayable",
      "type": "function"
    },
    {
      "inputs": [
        {
          "internalType": "address",
          "name": "_operator",
          "type": "address"
        }
      ],
      "name": "disallow",
      "outputs": [],
      "stateMutability": "nonpayable",
      "type": "function"
    },
    {
      "inputs": [
        {
          "internalType": "uint256",
          "name": "count",
          "type": "uint256"
        }
      ],
      "name": "getLatestTweets",
      "outputs": [
        {
          "components": [
            {
              "internalType": "uint256",
              "name": "id",
              "type": "uint256"
            },
            {
              "internalType": "address",
              "name": "author",
              "type": "address"
            },
            {
              "internalType": "string",
              "name": "content",
              "type": "string"
            },
            {
              "internalType": "uint256",
              "name": "createdAt",
              "type": "uint256"
            }
          ],
          "internalType": "struct Twitter.Tweet[]",
          "name": "",
          "type": "tuple[]"
        }
      ],
      "stateMutability": "view",
      "type": "function",
      "constant": true
    },
    {
      "inputs": [
        {
          "internalType": "address",
          "name": "_user",
          "type": "address"
        },
        {
          "internalType": "uint256",
          "name": "count",
          "type": "uint256"
        }
      ],
      "name": "getLatestofUser",
      "outputs": [
        {
          "components": [
            {
              "internalType": "uint256",
              "name": "id",
              "type": "uint256"
            },
            {
              "internalType": "address",
              "name": "author",
              "type": "address"
            },
            {
              "internalType": "string",
              "name": "content",
              "type": "string"
            },
            {
              "internalType": "uint256",
              "name": "createdAt",
              "type": "uint256"
            }
          ],
          "internalType": "struct Twitter.Tweet[]",
          "name": "",
          "type": "tuple[]"
        }
      ],
      "stateMutability": "view",
      "type": "function",
      "constant": true
    }
  ],
  "bytecode": "0x608060405234801561001057600080fd5b50611d05806100206000396000f3fe608060405234801561001057600080fd5b50600436106100ea5760003560e01c8063af22bf941161008c578063d21d159611610066578063d21d159614610283578063e8d857b01461029f578063fb46d4c5146102d2578063ff9913e8146102ee576100ea565b8063af22bf941461021b578063b88e318d1461024b578063c48d6d5e14610267576100ea565b80634dc0a687116100c85780634dc0a6871461016f5780635284b64a1461019f5780639139cda5146101cf578063a9ed9cb8146101ff576100ea565b80632637588e146100ef5780633befea091461011f5780634dbf27cc14610153575b600080fd5b610109600480360381019061010491906112cc565b61030a565b6040516101169190611327565b60405180910390f35b61013960048036038101906101349190611378565b610339565b60405161014a95949392919061146f565b60405180910390f35b61016d600480360381019061016891906114c9565b610454565b005b610189600480360381019061018491906114f6565b6104f7565b60405161019691906116b0565b60405180910390f35b6101b960048036038101906101b49190611378565b610711565b6040516101c691906116b0565b60405180910390f35b6101e960048036038101906101e49190611378565b6109d6565b6040516101f691906116d2565b60405180910390f35b610219600480360381019061021491906114c9565b610a24565b005b61023560048036038101906102309190611378565b610abc565b60405161024291906116ed565b60405180910390f35b6102656004803603810190610260919061183d565b610aed565b005b610281600480360381019061027c91906118ac565b610afd565b005b61029d60048036038101906102989190611908565b610b0c565b005b6102b960048036038101906102b491906114f6565b610b1a565b6040516102c99493929190611964565b60405180910390f35b6102ec60048036038101906102e791906119b0565b610bf2565b005b610308600480360381019061030391906114c9565b610bff565b005b60036020528160005260406000206020528060005260406000206000915091509054906101000a900460ff1681565b6002602052816000526040600020818154811061035557600080fd5b90600052602060002090600502016000915091505080600001549080600101805461037f90611a28565b80601f01602080910402602001604051908101604052809291908181526020018280546103ab90611a28565b80156103f85780601f106103cd576101008083540402835291602001916103f8565b820191906000526020600020905b8154815290600101906020018083116103db57829003601f168201915b5050505050908060020160009054906101000a900473ffffffffffffffffffffffffffffffffffffffff16908060030160009054906101000a900473ffffffffffffffffffffffffffffffffffffffff16908060040154905085565b600460003373ffffffffffffffffffffffffffffffffffffffff1673ffffffffffffffffffffffffffffffffffffffff168152602001908152602001600020819080600181540180825580915050600190039060005260206000200160009091909190916101000a81548173ffffffffffffffffffffffffffffffffffffffff021916908373ffffffffffffffffffffffffffffffffffffffff16021790555050565b606060008211801561050b57506005548211155b61054a576040517f08c379a000000000000000000000000000000000000000000000000000000000815260040161054190611aa6565b60405180910390fd5b60008267ffffffffffffffff81111561056657610565611712565b5b60405190808252806020026020018201604052801561059f57816020015b61058c611179565b8152602001906001900390816105845790505b509050600080846005546105b39190611af5565b90505b60055481101561070657600080600083815260200190815260200160002090506040518060800160405280826000015481526020018260010160009054906101000a900473ffffffffffffffffffffffffffffffffffffffff1673ffffffffffffffffffffffffffffffffffffffff16815260200182600201805461063a90611a28565b80601f016020809104026020016040519081016040528092919081815260200182805461066690611a28565b80156106b35780601f10610688576101008083540402835291602001916106b3565b820191906000526020600020905b81548152906001019060200180831161069657829003601f168201915b5050505050815260200182600301548152508484815181106106d8576106d7611b29565b5b60200260200101819052506001836106f09190611b58565b92505080806106fe90611bae565b9150506105b6565b508192505050919050565b606060008267ffffffffffffffff81111561072f5761072e611712565b5b60405190808252806020026020018201604052801561076857816020015b610755611179565b81526020019060019003908161074d5790505b5090506000600160008673ffffffffffffffffffffffffffffffffffffffff1673ffffffffffffffffffffffffffffffffffffffff1681526020019081526020016000208054806020026020016040519081016040528092919081815260200182805480156107f657602002820191906000526020600020905b8154815260200190600101908083116107e2575b5050505050905060008411801561080e575080518411155b61084d576040517f08c379a000000000000000000000000000000000000000000000000000000000815260040161084490611c43565b60405180910390fd5b60008085835161085d9190611af5565b90505b82518110156109c957600080600085848151811061088157610880611b29565b5b6020026020010151815260200190815260200160002090506040518060800160405280826000015481526020018260010160009054906101000a900473ffffffffffffffffffffffffffffffffffffffff1673ffffffffffffffffffffffffffffffffffffffff1681526020018260020180546108fd90611a28565b80601f016020809104026020016040519081016040528092919081815260200182805461092990611a28565b80156109765780601f1061094b57610100808354040283529160200191610976565b820191906000526020600020905b81548152906001019060200180831161095957829003601f168201915b50505050508152602001826003015481525085848151811061099b5761099a611b29565b5b60200260200101819052506001836109b39190611b58565b92505080806109c190611bae565b915050610860565b5082935050505092915050565b600460205281600052604060002081815481106109f257600080fd5b906000526020600020016000915091509054906101000a900473ffffffffffffffffffffffffffffffffffffffff1681565b6000600360003373ffffffffffffffffffffffffffffffffffffffff1673ffffffffffffffffffffffffffffffffffffffff16815260200190815260200160002060008373ffffffffffffffffffffffffffffffffffffffff1673ffffffffffffffffffffffffffffffffffffffff16815260200190815260200160002060006101000a81548160ff02191690831515021790555050565b60016020528160005260406000208181548110610ad857600080fd5b90600052602060002001600091509150505481565b610af8838383610c97565b505050565b610b08338284610c97565b5050565b610b168282610f31565b5050565b60006020528060005260406000206000915090508060000154908060010160009054906101000a900473ffffffffffffffffffffffffffffffffffffffff1690806002018054610b6990611a28565b80601f0160208091040260200160405190810160405280929190818152602001828054610b9590611a28565b8015610be25780601f10610bb757610100808354040283529160200191610be2565b820191906000526020600020905b815481529060010190602001808311610bc557829003601f168201915b5050505050908060030154905084565b610bfc3382610f31565b50565b6001600360003373ffffffffffffffffffffffffffffffffffffffff1673ffffffffffffffffffffffffffffffffffffffff16815260200190815260200160002060008373ffffffffffffffffffffffffffffffffffffffff1673ffffffffffffffffffffffffffffffffffffffff16815260200190815260200160002060006101000a81548160ff02191690831515021790555050565b3373ffffffffffffffffffffffffffffffffffffffff168373ffffffffffffffffffffffffffffffffffffffff161480610d575750600360008473ffffffffffffffffffffffffffffffffffffffff1673ffffffffffffffffffffffffffffffffffffffff16815260200190815260200160002060003373ffffffffffffffffffffffffffffffffffffffff1673ffffffffffffffffffffffffffffffffffffffff16815260200190815260200160002060009054906101000a900460ff165b610d96576040517f08c379a0000000000000000000000000000000000000000000000000000000008152600401610d8d90611caf565b60405180910390fd5b600260008473ffffffffffffffffffffffffffffffffffffffff1673ffffffffffffffffffffffffffffffffffffffff1681526020019081526020016000206040518060a0016040528060065481526020018381526020018573ffffffffffffffffffffffffffffffffffffffff1681526020018473ffffffffffffffffffffffffffffffffffffffff168152602001428152509080600181540180825580915050600190039060005260206000209060050201600090919091909150600082015181600001556020820151816001019080519060200190610e799291906111b7565b5060408201518160020160006101000a81548173ffffffffffffffffffffffffffffffffffffffff021916908373ffffffffffffffffffffffffffffffffffffffff16021790555060608201518160030160006101000a81548173ffffffffffffffffffffffffffffffffffffffff021916908373ffffffffffffffffffffffffffffffffffffffff16021790555060808201518160040155505060066000815480929190610f2790611bae565b9190505550505050565b3373ffffffffffffffffffffffffffffffffffffffff168273ffffffffffffffffffffffffffffffffffffffff161480610ff15750600360008373ffffffffffffffffffffffffffffffffffffffff1673ffffffffffffffffffffffffffffffffffffffff16815260200190815260200160002060003373ffffffffffffffffffffffffffffffffffffffff1673ffffffffffffffffffffffffffffffffffffffff16815260200190815260200160002060009054906101000a900460ff165b611030576040517f08c379a000000000000000000000000000000000000000000000000000000000815260040161102790611caf565b60405180910390fd5b604051806080016040528060055481526020018373ffffffffffffffffffffffffffffffffffffffff1681526020018281526020014281525060008060055481526020019081526020016000206000820151816000015560208201518160010160006101000a81548173ffffffffffffffffffffffffffffffffffffffff021916908373ffffffffffffffffffffffffffffffffffffffff16021790555060408201518160020190805190602001906110ea9291906111b7565b5060608201518160030155905050600160008373ffffffffffffffffffffffffffffffffffffffff1673ffffffffffffffffffffffffffffffffffffffff1681526020019081526020016000206005549080600181540180825580915050600190039060005260206000200160009091909190915055600160055461116f9190611b58565b6005819055505050565b604051806080016040528060008152602001600073ffffffffffffffffffffffffffffffffffffffff16815260200160608152602001600081525090565b8280546111c390611a28565b90600052602060002090601f0160209004810192826111e5576000855561122c565b82601f106111fe57805160ff191683800117855561122c565b8280016001018555821561122c579182015b8281111561122b578251825591602001919060010190611210565b5b509050611239919061123d565b5090565b5b8082111561125657600081600090555060010161123e565b5090565b6000604051905090565b600080fd5b600080fd5b600073ffffffffffffffffffffffffffffffffffffffff82169050919050565b60006112998261126e565b9050919050565b6112a98161128e565b81146112b457600080fd5b50565b6000813590506112c6816112a0565b92915050565b600080604083850312156112e3576112e2611264565b5b60006112f1858286016112b7565b9250506020611302858286016112b7565b9150509250929050565b60008115159050919050565b6113218161130c565b82525050565b600060208201905061133c6000830184611318565b92915050565b6000819050919050565b61135581611342565b811461136057600080fd5b50565b6000813590506113728161134c565b92915050565b6000806040838503121561138f5761138e611264565b5b600061139d858286016112b7565b92505060206113ae85828601611363565b9150509250929050565b6113c181611342565b82525050565b600081519050919050565b600082825260208201905092915050565b60005b838110156114015780820151818401526020810190506113e6565b83811115611410576000848401525b50505050565b6000601f19601f8301169050919050565b6000611432826113c7565b61143c81856113d2565b935061144c8185602086016113e3565b61145581611416565b840191505092915050565b6114698161128e565b82525050565b600060a08201905061148460008301886113b8565b81810360208301526114968187611427565b90506114a56040830186611460565b6114b26060830185611460565b6114bf60808301846113b8565b9695505050505050565b6000602082840312156114df576114de611264565b5b60006114ed848285016112b7565b91505092915050565b60006020828403121561150c5761150b611264565b5b600061151a84828501611363565b91505092915050565b600081519050919050565b600082825260208201905092915050565b6000819050602082019050919050565b61155881611342565b82525050565b6115678161128e565b82525050565b600082825260208201905092915050565b6000611589826113c7565b611593818561156d565b93506115a38185602086016113e3565b6115ac81611416565b840191505092915050565b60006080830160008301516115cf600086018261154f565b5060208301516115e2602086018261155e565b50604083015184820360408601526115fa828261157e565b915050606083015161160f606086018261154f565b508091505092915050565b600061162683836115b7565b905092915050565b6000602082019050919050565b600061164682611523565b611650818561152e565b9350836020820285016116628561153f565b8060005b8581101561169e578484038952815161167f858261161a565b945061168a8361162e565b925060208a01995050600181019050611666565b50829750879550505050505092915050565b600060208201905081810360008301526116ca818461163b565b905092915050565b60006020820190506116e76000830184611460565b92915050565b600060208201905061170260008301846113b8565b92915050565b600080fd5b600080fd5b7f4e487b7100000000000000000000000000000000000000000000000000000000600052604160045260246000fd5b61174a82611416565b810181811067ffffffffffffffff8211171561176957611768611712565b5b80604052505050565b600061177c61125a565b90506117888282611741565b919050565b600067ffffffffffffffff8211156117a8576117a7611712565b5b6117b182611416565b9050602081019050919050565b82818337600083830152505050565b60006117e06117db8461178d565b611772565b9050828152602081018484840111156117fc576117fb61170d565b5b6118078482856117be565b509392505050565b600082601f83011261182457611823611708565b5b81356118348482602086016117cd565b91505092915050565b60008060006060848603121561185657611855611264565b5b6000611864868287016112b7565b9350506020611875868287016112b7565b925050604084013567ffffffffffffffff81111561189657611895611269565b5b6118a28682870161180f565b9150509250925092565b600080604083850312156118c3576118c2611264565b5b600083013567ffffffffffffffff8111156118e1576118e0611269565b5b6118ed8582860161180f565b92505060206118fe858286016112b7565b9150509250929050565b6000806040838503121561191f5761191e611264565b5b600061192d858286016112b7565b925050602083013567ffffffffffffffff81111561194e5761194d611269565b5b61195a8582860161180f565b9150509250929050565b600060808201905061197960008301876113b8565b6119866020830186611460565b81810360408301526119988185611427565b90506119a760608301846113b8565b95945050505050565b6000602082840312156119c6576119c5611264565b5b600082013567ffffffffffffffff8111156119e4576119e3611269565b5b6119f08482850161180f565b91505092915050565b7f4e487b7100000000000000000000000000000000000000000000000000000000600052602260045260246000fd5b60006002820490506001821680611a4057607f821691505b60208210811415611a5457611a536119f9565b5b50919050565b7f436f756e74206973206e6f742070726f70657200000000000000000000000000600082015250565b6000611a906013836113d2565b9150611a9b82611a5a565b602082019050919050565b60006020820190508181036000830152611abf81611a83565b9050919050565b7f4e487b7100000000000000000000000000000000000000000000000000000000600052601160045260246000fd5b6000611b0082611342565b9150611b0b83611342565b925082821015611b1e57611b1d611ac6565b5b828203905092915050565b7f4e487b7100000000000000000000000000000000000000000000000000000000600052603260045260246000fd5b6000611b6382611342565b9150611b6e83611342565b9250827fffffffffffffffffffffffffffffffffffffffffffffffffffffffffffffffff03821115611ba357611ba2611ac6565b5b828201905092915050565b6000611bb982611342565b91507fffffffffffffffffffffffffffffffffffffffffffffffffffffffffffffffff821415611bec57611beb611ac6565b5b600182019050919050565b7f436f756e74206973206e6f7420646566696e6564000000000000000000000000600082015250565b6000611c2d6014836113d2565b9150611c3882611bf7565b602082019050919050565b60006020820190508181036000830152611c5c81611c20565b9050919050565b7f596f7520646f6e27742068617665206163636573730000000000000000000000600082015250565b6000611c996015836113d2565b9150611ca482611c63565b602082019050919050565b60006020820190508181036000830152611cc881611c8c565b905091905056fea2646970667358221220a071ca47f57fa37cc4df8d98bf8d912efe4d150adcc339363df323f56e415a1c64736f6c634300080b0033",
  "immutableReferences": {},
  "source": "// SPDX-License-Identifier: MIT\n\npragma solidity >=0.5.0 <0.9.0;\n\ncontract Twitter {\n\n    struct Tweet {\n        uint id;\n        address author; // name \n        string content; // tweet\n        uint createdAt; // time\n    }\n\n    struct Message {\n        uint id;\n        string content; // message\n        address from; // from \n        address to; // to \n        uint createdAt; // time\n    }\n\n    mapping(uint => Tweet) public tweets; // storing tweet \n    mapping(address => uint[]) public tweetsOf; //0xabc - 2,10,15,19,20,22\n    mapping(address => Message[]) public conversations; //\n    mapping(address => mapping(address => bool)) public operators;\n    mapping(address => address[]) public following;\n\n    uint nextId; //0\n    uint nextMessageId;\n\n\n    function _tweet(address _from, string memory _content) internal {\n        //tweet access check - owner,authority\n        require(_from == msg.sender || operators[_from][msg.sender], \"You don't have access\");\n        tweets[nextId] = Tweet(nextId, _from, _content, block.timestamp);\n        tweetsOf[_from].push(nextId);\n        nextId = nextId + 1;\n    }\n\n\n    function _sendMessage( address _from, address _to, string memory _content) internal {\n        //tweet access check - owner,authority\n        require( _from == msg.sender || operators[_from][msg.sender],\"You don't have access\");\n        conversations[_from].push(Message(nextMessageId, _content, _from, _to, block.timestamp));\n        nextMessageId++;\n    }\n\n    function tweet(string memory _content) public {\n        //owner\n        _tweet(msg.sender, _content);\n    }\n\n    function tweet(address _from, string memory _content) public {\n        //owner->address access\n        _tweet(_from, _content);\n    }\n\n\n    function sendMessage(string memory _content, address _to) public {\n        //owner\n        _sendMessage(msg.sender, _to, _content);\n    }\n\n    function sendMessage(address _from, address _to, string memory _content) public {\n        //owner - address access\n        _sendMessage(_from, _to, _content);\n    }\n\n    function follow(address _followed) public {\n        //abc - def,ghi,opr\n        following[msg.sender].push(_followed);\n    }\n\n    function allow(address _operator) public {\n        operators[msg.sender][_operator] = true;\n    }\n\n    function disallow(address _operator) public {\n        operators[msg.sender][_operator] = false;\n    }\n\n    function getLatestTweets(uint count) public view returns (Tweet[] memory) {\n        require(count > 0 && count <= nextId, \"Count is not proper\");\n        Tweet[] memory _tweets = new Tweet[](count); //array length - count\n        uint j;\n        for (uint i = nextId - count; i < nextId; i++) {\n            //count = 5 nextId=7; 7-5=2,3,4,5,6\n            Tweet storage _structure = tweets[i];\n            _tweets[j] = Tweet(\n                _structure.id,\n                _structure.author,\n                _structure.content,\n                _structure.createdAt\n            );\n            j = j + 1;\n        }\n        return _tweets;\n    }\n\n    function getLatestofUser(\n        address _user,\n        uint count\n    ) public view returns (Tweet[] memory) {\n        //7\n        Tweet[] memory _tweets = new Tweet[](count); //new memory array whoose length is count\n\n        //tweetsOf[_user] is having all the id's of the user\n\n        uint[] memory ids = tweetsOf[_user]; ///ids is an array\n\n        require(count > 0 && count <= ids.length, \"Count is not defined\");\n\n        uint j;\n\n        for (uint i = ids.length - count; i < ids.length; i++) {\n            //5-3 = 2 to 5\n\n            Tweet storage _structure = tweets[ids[i]]; //i=2 id[2]=15 tweets[15]\n\n            _tweets[j] = Tweet(\n                _structure.id,\n                _structure.author,\n                _structure.content,\n                _structure.createdAt\n            );\n\n            j = j + 1;\n        }\n\n        return _tweets;\n    }\n}\n",
  "sourcePath": "/home/prathamesh/Desktop/Twitter Dapp/contracts/Twitter.sol",
  "compiler": {
    "name": "solc",
    "version": "0.8.11+commit.d7f03943.Emscripten.clang"
  },
  "schemaVersion": "3.4.14",
  "updatedAt": "2023-08-02T07:44:18.277Z",
  "networkType": "ethereum",
  "devdoc": {
    "kind": "dev",
    "methods": {},
    "version": 1
  },
  "userdoc": {
    "kind": "user",
    "methods": {},
    "version": 1
  }
}